:020000040000FA
:2000000000B50C4B00219960042159610A4919600A490B480160002159600121996001BC56
:20002000002800D0004707480749086003C880F3088808470000001800031F001802000306
:20004000F40000180001001008ED00E00000000000000000000000000000000000000000AE
:20006000000000000000000000000000000000000000000000000000000000000000000080
:20008000000000000000000000000000000000000000000000000000000000000000000060
:2000A000000000000000000000000000000000000000000000000000000000000000000040
:2000C000000000000000000000000000000000000000000000000000000000000000000020
:2000E000000000000000000000000000000000000000000000000000000000002CEC210DBA
:2001000000200420F7010010C3010010C5010010C1010010C1010010C1010010C1010010A1
:20012000C1010010C1010010C1010010C7010010C1010010C1010010C9010010CB01001017
:20014000552A01107D2A0110852A01108D2A0110912D0110FD370110CD010010CD010010FF
:20016000CD010010CD010010CD010010D9120020CD01001019120020CD010010CD010010F5
:20018000CD010010CD010010CD010010CD010010CD010010CD010010CD010010CD0100106F
:2001A000CD010010CD010010CD010010CD010010CD010010CD010010CD010010CD0100104F
:2001C00000BE00BE00BE00BE00BE00BE00F04BF8103800BEF2EB88715C67011074670110DC
:2001E0003402001090A31AE700202149086006C881F3088810471F48006800282FD10DA4C2
:200200000ECC002902D000F012F8F9E71A491B4A002000E001C19142FCD119498847194972
:2002200088471949884700BEFDE701C901C29A42FBD3704774670110C000002050160020DC
:20024000047D01100000042000000420047D011000100420001004200000000070470B48C0
:200260000AF092FF0047EFF30580C0B27047000008ED00E0000000D050160020702200203F
:2002800015B20010F55F001015B300105756000006005250ABB360532C55011006005250AB
:2002A0005422A29D805C011005005250DE65F468047D0110F8B5C04610B5064C2378002B34
:2002C00007D1054B002B02D0044800E000BF0123237010BD6816002000000000504B011040
:2002E000044B10B5002B03D00349044800E000BF10BDC046000000006C160020504B011094
:2003000070B505000E0000F099FA041E14D003681B6B9847082D10D02B00093B012B05D8BF
:20032000236820009B6A9847052812DD1023320029000D2004F074FC70BD236820009B6A16
:2003400098470228F2DC2368042120005B6A9847ECE72368082120005B6A9847E6E7C04634
:20036000F8B5040000F06AFA051E3CD003681B6B9847022C3DD007DC002C36D0012C32D1F9
:2003800028000FF06FF8F8BD032C2CD128000FF05BF80DF0C5FC071C28000FF063F80DF014
:2003A000BFFC061C28000FF06BF80DF0B9FC391C041C381C0DF07FFC311C051C301C0DF02C
:2003C0007AFC011C281C0DF05FFC211C051C201C0DF071FC011C281C0DF056FC0DF00AFD36
:2003E0000DF0C0FCCFE70020CDE728000FF02CF8C9E728000FF044F8C5E7C04670B5050080
:2004000000F01CFA041E06D003681B6B9847002D07D0012D01D0002070BD20000FF0FEF8A9
:20042000FAE720000FF0D0F8F6E7C04610B5040000F004FA002803D0036821005B6A98472F
:2004400010BDC0460048704716FCFFFF7047C04610B50400024B03600EF0C4FD200010BDD8
:20046000F861011010B50400044B03600EF0BAFD20000DF067FE200010BDC046F861011003
:20048000F0B5C64600B50321040084B0512001F0EFFF0F27031139001F40802306005B0064
:2004A000050001401E40184200D0EDE0D74B3A00D7480EF079F8721E96410F21F2B2294013
:2004C0003B00200011F096FF0023D248A3600EF06BF801210320494201F0CAFFFF2630406B
:2004E00005F036F9012105004942022001F0C0FF304005F02DF90100002D00D1C6E00028FC
:2005000000D1C3E0280004F0DFFE061E00D1D9E001214620494201F0ABFF05003A2800D1DA
:2005200003E100DD95E0382800D1CFE0392800D06FE000230125A3603368019500955F6A4A
:200540000F230F22322130006B44B847002800D107E13368019500955F6A0F230F223021E3
:2005600030006B44B847002800D110E13368019500955F6A0F230D22382130006B44B8478C
:20058000002800D109E13368019500955F6A0F230D223A2130006B44B847002800D115E160
:2005A0003368019500955D6A0F237522682130006B44A847002800D0A2E0682196480DF0B0
:2005C000F3FF01210120494201F052FFFF23184005F0BEF805005C200DF0ACFD052307009E
:2005E0000193633300932A002300310010F06EFD3B68A760DB6A38009847A06803681B6B56
:20060000984786480DF0D0FF200004B004BC9046F0BD022302009A43302A00D089E701218A
:200620000120494201F024FFFF23184005F090F8804650200DF07EFD052307000193ADB233
:200640002300424631003800009510F0DDFA3B68CFE7682800D06CE701210120494201F04F
:2006600007FFFF23184005F073F880465C200DF061FD0523070001934246230031000095C9
:2006800010F024FD3B68B4E7654B10E765480DF08BFF01211920494201F0EAFEFF263040CC
:2006A00005F056F8012105004942182001F0E0FE304005F04DF80100280004F005FE061E50
:2006C00000D025E758480DF06FFF9DE701210120494201F0CDFEFF23184005F039F88046BF
:2006E00050200DF027FD0523070001934246230000953100380010F0CDFB4C4B3B6078E7A4
:200700004B480DF051FFA768002F7CD101210320494201F0ADFEFF23184005F019F800285A
:200720001BD044480DF040FF6EE701210120494201F09EFEFF23184005F00AF880465020AF
:200740000DF0F8FC052307000193424623003100009510F09FFB3B684BE737480DF024FF66
:2007600052E732212C480DF01FFF322501210120494201F07DFEFF23184004F0E9FF8046B1
:2007800050200DF0D7FC05230700019358E7302121480DF009FF3025E8E738211E480DF078
:2007A00003FF01210120494201F062FEFF23184004F0CEFF050050200DF0BCFC05230193F7
:2007C00033330093070023002A0092E73A2112480DF0EAFE01210120494201F049FEFF2391
:2007E000184004F0B5FF050050200DF0A3FC052307000193353300932A002300310010F0AC
:2008000049FB3B68F5E63B68F4E6C046684B0110704B0110904B0110CC4B0110504C011042
:20082000604B0110A04B0110B44B0110684C0110E04B0110F44B0110304C011070B5124C8F
:200840002368002B01D0986870BD01210120494201F00EFEFF25284004F07AFF002808D020
:200860000C200DF067FC0500FFF70AFEA8682560EAE701210320494201F0FAFD284004F06F
:2008800067FF0028ECD1DFE7B018002010B501F02BFF0BF0DBFF01F0F7FA10BD10B501F045
:2008A00023FF0BF07FF901F0EFFA10BD10B501F01BFF0BF073FE01F0E7FA10BD10B501F06B
:2008C00013FF0BF00FFE01F0DFFA10BD10B501F00BFF0BF035FE01F0D7FA10BD10B501F034
:2008E00003FF0BF025FF01F0CFFA10BD10B501F0FBFE0BF087FE01F0C7FA10BD10B501F0EC
:20090000F3FE0BF0D7FE01F0BFFA10BD10B5040008000299914220DB002B09D1042A16D04C
:20092000022A0FD1E3070DD423880380002008E0A4188218013C2378037001308242F9D14A
:20094000002010BD21000DF0EFFB0020F9E7A307F8D1236803600020F3E700210DF0DEFB50
:2009600001204042EDE7C0460830704703000020002B04D0002902DB5A688A4200DC7047C2
:200980005B18187AFBE7C046002806D0002904DB43688B4201DD4018027270470300002068
:2009A000002B04D0002902DB5A68914200DB70475B18187AFBE7C046024B1840431E98413F
:2009C000C0B2704703000010002806D0002904DB4368994201DA401802727047E0B5060056
:2009E0000F001500002B21DB00291FDB4168B9421CDB5268C91BD21A8A420DDC002A15DB95
:200A0000B5420BD03000290008300831C019C9180DF08AFB0020E0BD0A00EFE72800083001
:200A2000C118C01913F0C5F90020F4E701204042F1E7C0464068704710B5141E0DDB4268DF
:200A4000A2420ADB002B00DA1300121B9A4200DD1A00083000190DF061FB10BD436810B5CE
:200A60001C008B4200DD0C00002A00DA1A00191B914200DD11000830001900F057FF10BD2D
:200A800070B50D00002B01DA43689B1A002A1DDB44689918A14219DC914217DB002B15D092
:200AA000690013D05942A94211DAAB420FDD08308618002D12DB5C1B22007119300013F05A
:200AC00078F92A00002130190DF028FB70BD0123002200215B42FFF7AFFFF7E731005A199A
:200AE0006C42701B13F065F92200002130000DF015FBEBE710B54168083000F087FE10BD22
:200B0000F8B5050043680020590000F00FFE6B68002B12DD2E0000230F27084C821D08365D
:200B2000F15C0911615C1170F15C01333940615C5170696802329942F2DCF8BDA04C011038
:200B400070B50400160008001D1E01DA63689D1A002E2CDB6268AB19934228DCB34226DB24
:200B6000002D24D0430022D0002801DA2B02C01829000AF011FC002900DA49190834A41989
:200B8000611865198C4212D022000B0005E00132030091420CD0934209D01878147810706D
:200BA000581C1C708542F2D10B000132F3E770BD0100F0E7012300B55B4283B0009300232F
:200BC000FFF70CFF03B000BD030010B500200C1E06DD59680833180002F072FB1F2C00DD14
:200BE00010BD0300E34058400123A340013B1840F6E7C04610B50100002000F097FE10BDB4
:200C000070B50021050000F02DFE0100002000F08DFE010004000831280000F023FE20003B
:200C200070BDC04630B504000D00180083B0102A0DD8484B92009B589F4601F0DBFD6B46AA
:200C40001880012D03DDE30700D57CE0208003B030BD01F0CFFDC0B2002DF8DD2070F6E7F5
:200C600001F0C8FD002DF2DD2070F0E701F0C2FD83B2012DEBDD1B0A60702370E7E701F039
:200C8000B9FD032DE3DDE0704EE001F059FD0090032DDCDDA30750D12060D8E701F050FD28
:200CA000032DD4DDE0703FE001F0A4FD03B2012DCDDD1B041B0E60702370C8E701F09AFDE3
:200CC0000090032DE6DCC2E701F094FD6B4680B21880012DB7DCBAE701F020FE0090032DBB
:200CE000D8DCB4E701F000FD00900191072DAEDD0822694620000DF017FAA8E701F0F4FC5F
:200D000000900191072DA2DD23006A4608331178013B197001329C42F9D198E701F0FEFD5C
:200D2000032D00DC93E7E07003041B0EA37003021B0E000E6370207089E704226946200096
:200D40000DF0F2F983E70222694620000DF0ECF97DE7C046B44C011010B5002A07DB446874
:200D60000830A41A80180A002100FFF75BFF10BD10B584B0102A00D977E03D4B92009B582D
:200D80009F460123009102A90822FFF7BFFD0298039901F079F804B010BD002302AC0091B7
:200DA00001222100FFF7B2FD0020205601F068F9F1E7002302AC009101222100FFF7A6FD4B
:200DC000207801F05DF9E6E7002302AC009102222100FFF79BFD0023E05E01F051F9DAE7D5
:200DE000002302AC009102222100FFF78FFD208801F046F9CFE700230091042202A9FFF7C1
:200E000085FD029801F03CF9C5E7012302AC0091C6E7012302AC0091CEE7012302AC009159
:200E2000D5E7012302AC0091DDE701230091E4E700230091042202A9FFF768FD029801F0E4
:200E40002BF9A8E701230091F4E700230091042202A9FFF75BFD029801F00CF99BE7002347
:200E6000009190E701230091F1E7002093E7C046F84C011010B5002A08DB436808309B1A7E
:200E800080180A001900FFF773FF10BD002001F0F7F8FAE710B503F09DFD10BD10B503F0AA
:200EA0009DFD8000800810BD10B503F0B9FE10BD10B512F03FFD10BD10B5C11703F050FDDA
:200EC00010BDC04610B503F05FFD10BD10B503F06BFD10BD00B583B003F078FD00900191FF
:200EE0000821684602F0ECF98000800803B000BD00B583B003F06AFD009001910821684691
:200F000000F014FD03B000BD70B50C1E0CD00B6808001B6A9847236805005B6A2000984702
:200F20000100280004F05AFF70BDC04610B502F0DFF810BD10B5012002F084FB10BDC04683
:200F400010B5022002F07EFB014808F079FE10BD93030000014B18607047C0469C160020D1
:200F60007047C04600207047F0B54546DE4657464E46E0B5050083B0002A00DC20E18024E0
:200F800064420020A4469F340023A0460190CE56CC5C002E33DA260040468643F6B2C02EA2
:200FA00052D026000F208643F6B2E02E32D19E1C964247DA3F26C818824640788146B04306
:200FC0005E1C802800D1BAE03300019802300190002D0AD04020A609404206437F30044021
:200FE000604604432E706C7002359342CFDB019803B03CBC90469946A246AB46F0BD013321
:201000007F2CE2D8019801300190002DEDD02C700135EAE7260007208643F6B2F02E11D1C5
:20102000DE1C96420EDAC818467881463F273000B843802806D148463F2780788246B843D2
:20104000802825D05E1CBFE75E1C9642BCDA3F27C81840788146B8438028B5D1A001824694
:20106000F820C000834650465F46384082463F2748463840814650464F4638437F2800DDF7
:201080009BE0019B023301933300002DA2D17EE748463F27C0788346B8438028D2D1E027F6
:2010A000A0047F03384081463F2758463840834648465F4638438146FC20360380020640F4
:2010C000484630438146FC265046360180010640484606433B4881468020B14440035E1C1F
:2010E000814500D370E70198043306300190002D00D17AE74846840AD820000282463F26C7
:201100005444A00930406646304368703F20044048463443AC708405DC2000028146ED2701
:201120006046A40D4C442F70EF70A609AE3F3E403C40064304432E716C71063555E750461B
:201140003F2780788346B843802800D03CE72007000C824658463840834650465F46384342
:201160008246484680018146FC200001834648465F463840814650464F463843814680206C
:201180000001814500DA1FE70198033303300190002D00D129E748462024060B6442344307
:2011A0003F262C7084096046344004436C704C4634400443AC70033517E70400023304E7A1
:2011C000002015E70000FFFF02000023D3560078002B08DA1F2301009943C02911D0F02326
:2011E0000340E02B00D07047FC2351781B018901194003073F2092781B0C0B4310401843A0
:20120000F1E78301F820C00003403F20527810401843E8E7F0B5C5888D4230D30B09002AB2
:201220002FD182682D096D00868855190F2909D91B48844663445B009B5AF61AED180F2320
:20124000B6B219400F20002200231F27844602E001339E4213DB0132EC5CE81891420FDB2D
:2012600060B20028F4DA2000B843C02816D060468443E02CECD1023301339E42EBDA002019
:20128000F0BD02002D096D000832868855190F29D8D9013B5B00C0180389CEE70133D7E7BB
:2012A000FFFFFF7F80880A3080087047063070478088704783888B4202D306304018704793
:2012C0000020FCE780880A30800870470630704780887047F0B58588811D0020002D16D05B
:2012E00000231F260F2702E001339D420FDDCC56CA5C0130002CF7DA1400B443C02C07D02B
:20130000BA43E02AF0D1023301339D42EFDCF0BD0133E9E7F0B5851D86880F200022002378
:201320001F27844602E001339E4213DB0132EC5CE81891420FDB60B20028F4DA2000B8435E
:20134000C02809D060468443E02CECD1023301339E42EBDA0020F0BD0133E4E703207047E2
:20136000C38880681B095B00C018704780887047C088704710B50022FFF74CFF10BDC04673
:201380000300C0889B88000902304000C0180830800870470200C088083200094000101820
:2013A0007047C04610B50122FFF734FF10BDC04640680B3080087047F0B5D6464F46464688
:2013C00005001400C0B5002A1AD0C78804003F097F00BA46838808349846A244002951D0FC
:2013E0001A0050460CF0A0FE0023524641465354EE8836091AD11CBC90469946A246F0BDF8
:201400008368C7889A463F0983887F009846BA4400293DD01A0050460CF086FE534642467D
:201420009C54EE883609AC68002EE4D07600B146504600231F25A1444246D71A1CD40F2624
:2014400010210023B446027807E001339F4213DB0139C25CC618002922D056B2002EF4DA85
:201460001600AE43C02E19D06646B243E02AECD1023301339F42EBDADC20800008F0E0FBC8
:2014800000200EE0534642469954C6883609CBE7534642469954C6883609C4E70133D4E7BC
:2014A00030005346C31A238002344C45C4D1A2E710B58068002801D001F0A4FF10BDC046F1
:2014C00010B50400406801F0C3FFA06801F0C0FF10BDC046F0B54546DE4657464E46E0B543
:2014E0004B4C0500A18883B0002900D081E02A00200002F085FEA3889846002B00D182E074
:20150000002398469946434B9B460AE09B6A9847336881445B6A30009847A3888044002B60
:2015200013D0200002F080FE036806005B45EDD18268A188200002F063FE20007268A188C0
:2015400002F05EFEA388002BEBD14B461F094346581C9BB298464B467F009BB2C019019380
:2015600002F0D4FB8146A1884F44002946D12A00200002F045FEA388002B26D0254B9B46CB
:201580000FE05B6A9847336882461B6A300098475246010038000CF0C7FDA3885744002B3F
:2015A00013D0200002F040FE036806005B45E8D18268A188200002F023FE20007268A188C5
:2015C00002F01EFEA388002BEBD1134B00222B604346AB80019B0021EB804B462800AB6040
:2015E000FFF7EAFE03B03CBC90469946A246AB46F0BD0A4808F024FBA18878E7074808F0EF
:201600001FFBA188B3E7012000270193A8E7C04640180020044E0110344E0110710300009A
:2016200010B50400FFF756FFE08810BD10B50400FFF750FFA08810BD10B50400FFF74AFF56
:20164000E388A0681B095B00C01810BD70B50D000400FFF73FFF290000222000FFF7DAFD51
:2016600070BDC0467047C0460320704703207047C08870477047C046808870477047C0468E
:20168000808870477047C04600280ED043688B4201D0002B06D1531C07D08368934204D0A3
:2016A000002B02D000680028F0D170470A4B0200186800280ED043689A4201D0002B06D1EE
:2016C0004B1C07D08368994204D0002B02D000680028F0D17047C04664180020F0B5C646DA
:2016E000114B04000D001600984600B51B68002B09D05A68A242F9D19A68AA42F6D1DE60EA
:2017000004BC9046F0BD102002F012FB43461B680700036044608560C66001210C3002F0E2
:20172000B7FB43461F60EBE764180020F0B5C64605000C0000B500290ADB0ED0002811D114
:20174000C81D02F021FA2D4B0700036084801EE012F01CFC8046041E05D1294F380004BC6B
:201760009046F0BD88460023EA5C7F2A13D80133A342F9DB214E4346D81D02F005FA4246C8
:20178000070006608480290006300CF0CDFC00233C19A371E2E7132C2CDD002600231F208F
:2017A0000F2702E00133A3420FDAE956EA5C01360029F7DA11008143C0291DD0BA43E02AA7
:2017C000F0D102330133A342EFDB0F20F317184043468019001109334000C01802F0D4F959
:2017E000084B0122290003608480C6800700FFF7E3FDB3E7044EBEE70133D3E7944E01104E
:20180000804F0110C44E0110644E0110F8B505000C1E02DA12F0BAFB0400002C02D1104C34
:201820002000F8BD220029000020FFF79DFB060084420FD002F07CFA070022002900FFF77F
:2018400093FB31003800FFF771FF0400380002F07FF9E5E721002800FFF768FF0400DFE749
:20186000804F0110F8B5DE4657464E46454603680400E0B51B6A88469847236806005B6A6F
:2018800020009847071E11D08023DB00002400259B46335D3019ED2B0FD04246002A00D049
:2018A000535501350134BC42F3D32F0038003CBC90469946A246AB46F8BD621D9246BA425C
:2018C000EBD2FFF781FC174B99468144D945E9D2E01C3018FFF778FC134BC3185B45E1D2BF
:2018E0004346002B1BD090224B469201944610229B026344181883145242134342463F218A
:20190000802453555319021364420A4022435A7082110A400840224320439A70D870544602
:201920000435BFE70028FFFF0024FFFF70B506000C1E10DD0800083002F026F9094B050094
:20194000220003604460002E07D0310008300CF0EBFB280070BD044DFBE7002108300CF031
:20196000DDFBF6E7F44E0110744F0110014B18607047C04670150020020043011B189B0150
:201980001B189B001B18D802C31A5B009B1AD800C01A0449C300181A40000B6880185840A8
:2019A00008607047701500200F4BF0B59C46050001241F682A000020BE09FB0F73407B4048
:2019C0003E0979087340BF087B404B40DB070B431F00230040003B4018435208ECD1854219
:2019E000E8D363461F60F0BD7015002000487047804F011010B5184A030482B01B0C1042FA
:201A000006D1012101A80370FFF790FE02B010BDF822120210420DD14022991152420A4363
:201A200001A802703F221A4080235B42134302214370E9E72022191352420A433F24802141
:201A400001A802709A114942224023400A431943817042700321D7E780FF0000F0B54F4689
:201A6000D64646460C00C0B5071E63D0454B002943D098426ED09C4262D03B68424EB342C9
:201A800064D05B6A38009847236881465B6A2000984706004E448046322E55D83B6838005A
:201AA0001B6A9847236882461B6A20009847310007000020FFF73AFE036805001B6A984791
:201AC0004A46514604000CF02FFB4B4642463900E0180CF029FB002E09D0361902E00134DE
:201AE000A64204D023787F2BF9D9284B2B6028001CBC90469946A246F0BD984222D0036894
:201B0000214E234CB342BCD1B8680368B34209D05B6A9847236805005B6A200098474019BB
:201B200032281DD90C2002F02FF80500066047608460DCE700290FD0124B154F9C429CD143
:201B40003D00D4E7124DD2E70F4EEBE72368B342DAD1E7E70D00CAE70D4C0E4B270090E73F
:201B60000C2002F011F80500066002F0A9F97B6821006B60B868FFF771FFA860280002F0C8
:201B8000B1F9B4E7804F0110044E0110644E0110D44F0110944E0110F8B505000C0088424B
:201BA00026D003685B6A9847236807005B6A200098472B6806001B6A280098472368050015
:201BC0001B6A200098470200BE420BD82C00521B2378105D834207D08342804101239843DA
:201BE0000130F8BD3E00F1E70134631B9E42EFD20020F6E710B503689B6A984710BDC046B1
:201C0000F0B54646DE4657468846C0B57F22060082B037783B00093B042B5DD913003B4095
:201C2000202B59D02B2F01D1777801362D2F00D175E00023404C00930194002F00D178E02D
:201C40000022002393460024002521E000223B4B2000290009F045FE04000D00504609F04F
:201C6000B9FE22002B0009F015FE5A4604000D000123002A08D000980199304B002209F0B5
:201C800012FE5B460090019177780136002F11D0302252429246BA445246092AD6D95A4665
:201CA000002A1BD12E2F19D10122777801369346002FEDD12200009801992B0009F011FE31
:201CC00004000D0043461E602000290002B01CBC90469A46A346F0BD01369AE7002B25D0F5
:201CE000009801992B00220009F0FBFD202304000D009F43452FE5D10A224146701C12F0D3
:201D0000E5F90E490200002012F042FE02000B002000290009F0E5FD04000D00D4E700230A
:201D2000074C777800930194013686E70024054DCAE700240025BDE70000F03F00002440EE
:201D40000000F0BF0000F87FF8B507000C00151E0ADD03689B6A98470600002C06DB331BD3
:201D6000AB420ADC002B09DC0F48F8BD0419E343DB171C40331BAB42F4DD66193B68210094
:201D8000DB6A380098473B68050031003800DB6A9847041E04D02800611BFFF7C7FCE4E794
:201DA000024807F04DFFF6E7804F011072030000F8B54746CE46050080B514000F00002891
:201DC0004ED000294CD003681B6A9847E14380462B68C91721402800DB6A98474346C61A5E
:201DE0002B6804005B6A280098473B68861B5B6A380098470500002C32D0864230D33B68BF
:201E000038001B6A9847A6198146077803E00134331B9D4224D82378BB42F8D12A004946C6
:201E2000200011F0B8FF0028F1D14346E41A002C18DD00231F250F2602E001339C4211DDBA
:201E400041464246C956D25C01300029F5DA1100A943C0290AD0B243E02AEED10233ECE777
:201E6000012040420CBC90469946F8BD0133E4E710B5FFF79DFF0130431E984110BDC046F9
:201E8000012358407047C04670B50A0005000C1E11D100284ED02A0023002800210009F0B4
:201EA00086FD002848D10C3001F06EFE234B45600360846070BD4B0021495B0D59181D296A
:201EC00017D814291EDC1F48844620006344984003002B43DFD18020E40200061F332043AA
:201EE000591AC840002A21DA0123404240001843E0E71E29CFD10028CDD1134B9C42CAD1B6
:201F00001248D7E712488446280063449840031EC1D18020E40200061F335B1A2043D8405D
:201F20003423591ACD402843002ADDDB012340001843BFE70120BDE70E20BBE7244F0110FF
:201F400001FCFFFF0DFCFFFF0000D0C101000080EDFBFFFF70B5036882B01B6A984701A9B7
:201F6000FFF74EFE04000D00002200232000290009F0FAFC00280CD101226E00760820005D
:201F80003100154B524209F012FD002807D00024124D20002900FFF777FF02B070BD0122DB
:201FA000200031000C4B524209F0FCFC0028EED180230022200031005B0309F0F8FC002884
:201FC000E5D180230022200031005B0309F0D4FC0028DED0DBE7C046FFFFEF7F0000F87F8D
:201FE00010B509F0F7FCFFF74FFF10BD036870B5DB6A04009847051E1AD0FFF7E5F800285F
:202000000FD1236820001B6A9847236806005B6A200098473618B5420AD0002301201843BE
:2020200005E043005A109042F8D0FFF7D9FF70BD0E20FCE710B5002802D0FFF7D7FF10BD10
:202040000E20FCE710B500280AD0FFF7CFFF04000E2805D0C30705D56010FFF7CBFC00E024
:20206000024810BD024807F0EBFDF5E7804F01107103000010B50BF0B3FEFFF705FF10BDB8
:20208000430010B55A10904202D0FFF7A9FF10BD01201843FBE7C046802310B5DB05984239
:2020A00003D201234000184310BD09F08FFCFFF7EBFEF9E7431E98414342382018400A30D3
:2020C0007047C046F0B54E464546DE465746E0B50023160083B0002205000C0009F04CFC49
:2020E000002806D02D23337080231B069C4601366444002200232800210009F035FC00288A
:202100000AD0302333700023737003B03CBC90469946A246AB46F0BD280021000AF0A2FB23
:2021200009F070FC21008046884A2800884B09F023FC002808D128002100864A864B09F08A
:2021400031FC002800D17DE04346002B00DAA1E042460020814912F01BFC02000B0028002D
:20216000210009F0A0FB7E4A7E4B09F0BAFB7E4B002209F08FFB09F081FC01235B429A46E6
:2021800002330193002304000D0099462E23774F774901229B4677486837A9421CD8A94260
:2021A0004CD03023241A8D410133A94202D8F9D1A042F7D9D9B231702100731C294311D105
:2021C0000199914216DD0F2A14D0386879681E00083F0132A942E2D9302131702100731C21
:2021E0002943EDD001999142EDD15946B31C71700F2AEAD15146481C49461A003024181820
:2022000000290BD014700132811A0029FADC5246D2435146D2170A4001329B184246012A59
:2022200035D065221A704246591C002A02DD2B22991C5A7040460BF0A1FF66E7A042B0D9DD
:202240003021CAE743465F1C01970E2B46DD0E235B4243441A0000204049994612F098FBF8
:2022600002000B002800210009F01DFB00223E4B09F010FB09F002FC04000D00002F13DD21
:202280000F235B4243449A46012398467EE700221A703AE75A420020304912F079FB2A00FF
:2022A000230009F01EFB5EE730233370B31C9C462E2373704346DE430F235B4243449A46E9
:2022C000013E6346302198191A00197001338242FAD1012301369846664457E70E2200203D
:2022E000D21A1E4912F054FB02000B002800210009F0F7FA1C4B002209F0CCFA09F0BEFB00
:20230000019B04000D00002B18DC30233370B31C9C462E2373704346DB4399465E1E002BE9
:2023200005D001235B429A4600239946C9E701235B429A4602336646984627E701235B4246
:202340009A4602339846002399461FE78DEDB5A0F7C6B03E50EFE2D6E41A4B440000244020
:202360000000901EC4BCD6420000E03F50500110F35A000000407A10012070B54042FFF772
:2023800013FB04000D48FFF70FFB0600200009F01DFB00220A4B09F0A4FA040030000D0050
:2023A00009F014FB074A084B09F07DFA02000B002000290009F06EFA70BDC046FFFFFF001A
:2023C0000000F03D0000E0DFFFFF6F4310B5FFF7D3FFFFF759FD10BD4843704710B508F0BC
:2023E000DBFF10BD10B50C2001F0CEFB040002F01FF8200010BDC0460089704710B5043052
:2024000001F08AFF10BDC04610B50A000430818801F068FF10BDC04610B5043001F08AFFC5
:2024200010BDC0460389994203D243688900C85870470020FCE7C04610B5043001F052FF3E
:2024400010BDC04610B5043001F084FF10BDC04610B5043001F09EFF10BDC046024B1B683F
:20246000588CC0007047C0463C180020002070471B4B70B51B6804000E00002B0FD0596AC3
:2024800000290CD00B680025984206D122E0AA1C9300CB58A34215D01500002BF7D1FFF7A8
:2024A000E5FF00280CD0036800219C4206D114E08A1C9300C358A34208D01100002BF7D1EA
:2024C000300070BD0335AD004859FAE7033189004058F6E704354859F3E704314058F0E7AE
:2024E0003C180020406870474160704710B5082001F04AFB040001F0A3FF200010BDC04604
:2025000070B505000C00160000290ADB8388994207DAA4002C19E368002B0BD12800E660F1
:2025200070BDA4000A2106482C1901F0E3FFE368002BF3D00B21024801F0DCFFEEE7C046E3
:202540008603000010B507F07BFB10BD002805D0034BC31A5A1E93415B4218407047C046CD
:20256000804F0110431E98417047C04610B5142001F00AFB040001F06BFF200010BDC04643
:2025800010B5040001F06EFF002806DB238A984203D2E3688000C05810BD0020FCE7C046F6
:2025A0001E4BF0B51B68C646DB6A07001A009B6820CA00B59046013D98421AD3AB009B58FD
:2025C000984216D8002D0FDD012202E0621CAA420ADC414654196410A3005B589F4204D052
:2025E000F4D8651EAA42F4DD0024200004BC9046F0BD002DF8DD012602E0651EB542F3DBF5
:202600004246AC196410A30039009858FFF7C4FA0028EAD0F1DA661CF0E7C0463C180020F9
:20262000044B10B51B680131DB6A8900C958FFF7A7FF10BD3C18002070B50D0004001600B9
:2026400001F010FF011E05DB200032000C3001F049FE70BD2A002189201D01F043FE200025
:202660003200218A0C3001F03DFEF2E7044B10B51B680131DB6A8900C958FFF7DDFF10BDE5
:202680003C180020014B18687047C046381800207047C04610B583070AD100281BD00122B0
:2026A000036804249343DA78F92A12D0200010BD002810D0C30710D40E280ED042280ED05B
:2026C0000A280CD004240628F0D0064807F0B8FAECE79C78EAE70024E8E70224E6E701241C
:2026E000E4E7C0462103000070B504000E281FD000281DD0830711D12000FFF7CBFF050031
:20270000022818D0032813D12000FFF723FC04000E280DD0002C0BD02C42EDD0200000F00A
:202720000FF809F057F902000B001000190070BD0022024BF9E76268A368F6E70000F87F6E
:2027400070B5C30701D5401070BD830703D58011431E9841F8E7002846D0FFF7C5FF012210
:2027600004004D006D080E00200029001F4B524209F01DF9002837D10122200029001B4B2D
:20278000524209F00FF900282ED180230022200029005B0309F00BF9002825D18023002231
:2027A000200029005B0309F0E7F800281CD12000310009F009FD00220D4B0AF0E1F90022C5
:2027C000002304000D0009F0D7F8002807D0200029000022064B09F05DF804000D002000C3
:2027E000290009F033F9AFE70020ADE7FFFFEF7F0000F04110B5FFF7A3FF10BD70B50D0048
:20280000FFF79EFF04002800FFF79AFF1F2303402000984043005A10904202D0FFF7E0FBCB
:2028200070BD01201843FBE770B50D00FFF788FF04002800FFF784FF1F23034020001841BB
:2028400043005A10904202D0FFF7CAFB70BD01201843FBE770B50D00FFF772FF040028001C
:20286000FFF76EFF604043005A10904202D0FFF7B7FB70BD01201843FBE7C04670B50D0099
:20288000FFF75EFF04002800FFF75AFF204343005A10904202D0FFF7A3FB70BD0120184379
:2028A000FBE7C04610B5FFF74BFFC04343005A10904202D0FFF794FB10BD01201843FBE727
:2028C00070B50D00FFF73CFF04002800FFF738FF204043005A10904202D0FFF781FB70BDEC
:2028E00001201843FBE7C04670B50D00FFF728FF04002800FFF724FF1F2303402000D84023
:202900008023DB05984203D201234000184370BD09F05CF8FFF7B8FAF9E7C04610B50E28C3
:202920000DD000280BD0830704D1FFF7DDFE09F0B1F810BDFFF704FF0BF0F2F9F9E7014810
:20294000F7E7C0460000C07F70B50E00FFF7CCFE040030000D00FFF7C7FE02000B00200038
:20296000290008F097FFFFF78FFA70BD70B50E00FFF7BAFE040030000D00FFF7B5FE020027
:202980000B002000290008F07CFFFFF77DFA70BD0B0001220340D0B50C001A4203D0C313CF
:2029A0000133012B0FD9FFF79FFE060020000F00FFF79AFE02000B003000390008F091FF7B
:2029C000FFF762FAD0BDCB130133012BEBD84C104010604343005910884202D0FFF700FB8F
:2029E000F0E713431800EDE7D0B50C0003290ED0FFF77AFE060020000F00FFF775FE020015
:202A00000B003000390008F04EFFFFF73DFAD0BDF8B501250C00284201D029420FD1FFF7E8
:202A200063FE060020000F00FFF75EFE02000B00300039000AF0A4F8FFF726FAF8BD4B107C
:202A4000EDD0FFF77DFE06002000FFF779FE0100300008F0A1FC4B0008005A10914202D08D
:202A6000FFF7BEFAEAE72B431800E7E770B50E00FFF73AFE040030000D00FFF735FE0200B6
:202A80000B002000290009F0F9FEFFF7FDF970BDF0B50E00012183B0084210D00E420ED079
:202AA00040107610864244DA801BFEF77DFF301846007310984241D0FFF792FA1CE0FFF7DE
:202AC00013FE040030000D00FFF70EFE06000F0002000B002000290008F064FF002813D1D0
:202AE00032003B002000290008F03EFF002805D020002900FFF7C8F903B0F0BD32003B0021
:202B000026002F0014001D00FFF736FC3200009001913B002000290008F0B3FE009A019B50
:202B200008F0DFFE32003B0008F0B4FEFFF7ACF9E2E7864205D170000843DDE70120304394
:202B4000DAE7330006001800AEE7C04610B5FFF7CBFD09F033F8FFF797F910BD10B5FFF713
:202B6000C3FD09F07FFEFFF78FF910BD10B5FFF7BBFD09F0A7FBFFF787F910BD10B5FFF7C8
:202B8000B3FD09F0E7FBFFF77FF910BD10B5FFF7ABFD09F019FBFFF777F910BD10B5FFF711
:202BA000A3FD0022034B08F075FE09F08BFBFFF76BF910BD0000E03FF8B504000D000E28E1
:202BC00007D00E2905D0884226D00B000340DB0701D50020F8BDFFF75DFD06002800FFF703
:202BE00059FD8642F5D123002B439B07F1D1032E14D0022EEDD12000FFF776FD0600280042
:202C00000F00FFF771FD0B0002003900300008F0ABFE431E9841DDE70120DBE72900200000
:202C2000FEF7BAFF43425841C0B2D3E710B5FFF7C3FF431E98414342382018400A3010BDA9
:202C400010B5FFF7B9FF434258414342382018400A3010BDF8B505000C000E2828D00E2984
:202C600026D0062861D042283FD00A2833D00200062900D170E0422C32D023000A2C36D030
:202C80009A4230D02B002340DB0711D42800FFF701FD06002000FFF7FDFC0300032E09D0C5
:202CA00003282FD0012E46D0012822D09E4205D00020F8BD022827D00328F5D12B0023435D
:202CC0009B07F5D1032E4BD0022E1DD0641B60426041C0B2EDE70122062CD7D0422CCCD114
:202CE00003239A42CED10120E3E70322F4E70123C6E7062C3CD0422CDAD002230A2CD5D120
:202D0000093CD3E7022E1FD12800FFF7EDFC060020000F00FFF7E8FC0B0002003900300008
:202D200008F022FE431E9841C3E70629DBD04229A8D00022A1E7062D0BD00226422D0DD0AE
:202D40000A2DB1D1093DAFE7012EB1D1062DF4D1AEE702260025A7E7002391E70325A3E778
:202D600021002800FEF718FF43425841C0B2A0E7022300249AE7C04610B5FFF76BFF10BD25
:202D800010B5FFF767FF431E98414342382018400A3010BD10B5FFF75DFF434258414342E2
:202DA000382018400A3010BDF8B506890D004768002E0DD0002402E00134A64208D9A300B2
:202DC0002900F858FFF746FF0028F5D0200001E001204042F8BDC04610B500220400FFF712
:202DE000E3FF01000020002900DA10BD201D01F0B1FA0120F9E7C04670B50400830709D193
:202E0000002827D0FFF746FC032825D002280ED001200BE00A281DD000281BD00E2819D0D6
:202E2000062817D0013C2000441EA04170BD2000FFF75AFC02000B0004000D0008F0B7FD7A
:202E4000002807D1002200232000290008F08CFD0028DDD00020E9E70248201A441EA041D7
:202E6000E4E7C046804F011010B5422806D00A2802D0FFF7C1FF10BD0020FCE70120FAE710
:202E8000F8B504000E000E283FD00E293DD0FFF701FC05003000FFF7FDFB032D2CD0B442B2
:202EA00031D02000FFF720FC040030000D00FFF71BFC220006000F002B002000290008F0EE
:202EC00076FD002821D132003B003000390008F06EFD002819D132003B002000290008F06C
:202EE0004BFD002814D13B0032002000290008F059FD431E9841F8BD0328D0D1310020006D
:202F0000FEF74AFEF7E70020F5E702204042F2E701204042EFE7C04601220B0010B5140097
:202F200003401C401A4207D00124884202DAE4B2200010BD0024FAE7FFF7A2FF831CF7D06F
:202F4000C40FF5E70B00034010B5DB0703D5884207DD0A2010BDFFF793FF831CF9D0002838
:202F6000F7DC4220F6E7C0460B00034010B5DB0703D5884207DB0A2010BDFFF781FF831CB4
:202F8000F9D00028F7DA4220F6E7C0460B00034010B5DB0703D5884205DB422010BDFFF78E
:202FA0006FFF0028F9DA0A20F8E7C0460B00034010B5DB0703D5884205DD422010BDFFF7FB
:202FC0005FFF0028F9DC0A20F8E7C04670B590B00400FFF75FFB032835D002280DD005286A
:202FE00034D0002C40D00A2C53D00E2C3AD0422C53D0062C4FD02B4826E0E30728D40E2C79
:2030000030D02000FFF770FB01224E0076080D00254B31005242040008F0C9FC002825D11F
:20302000012220003100204B524208F0ABFC00281CD1002200232000290008F09DFC002822
:203040002DD11A4800E0200010B070BD1848FBE7694660100BF092F8012168464942FEF7ED
:2030600065FBF1E71348EFE71348EDE722002B002000290008F09BFC0028F3D1200029005E
:203080006A46FFF71FF8012168464942FEF74EFBDAE70A48D8E70A48D6E70A48D4E70A489A
:2030A000D2E7C046F84F0110FFFFEF7FA84F011008500110B84F0110644F0110EC4F0110F4
:2030C000D44F0110E04F0110C44F011010B5FFF7E1FA052803D8044B8000C05810BD0348BB
:2030E00006F0AEFD0020F9E7EC4D01102203000070B50400FFF7CEFA042813D1002C0CD0C1
:20310000A3070AD1216801230A009A435369134883421DD02000984703E0210010480BF077
:2031200043FA70BD2000FFF751FF05002000FFF7CDFF03681B6A98472B6806001B6A2800C3
:20314000984722000300310006480BF02DFAE8E71388054812890BF027FAE2E7F130001062
:203160003C4D0110684D0110484D011010B50A000400010011480BF017FA002C0BD0A3075F
:2031800005D1012321689943CB78F92B0DD0062C01D10B4806E02000FFF77CFAF5239B0010
:2031A0009C46604406F04CFD10BD0B898A7805480BF0FAF9062CECD0EDE7C046784D01100E
:2031C000DD030000984D0110010010B503480BF0EBF9E420800006F033FD10BDB84D01109C
:2031E00010B501F0FFFB0400102000F0A1FD23690360206110BDC04670B501F0F3FB0569A8
:203200000400002D05D02B682800236100F0A0FC70BD024806F014FDF5E7C0465303000027
:20322000F0B5C64600B584B0804601F0DBFB04690500002C17D06E46236822002B613300C2
:2032400083CA83C3126820001A6000F081FC43466B610A4B29001B6830009B6B984704B03B
:2032600004BC9046F0BD06480BF09EF94046FFF73FFF044806F0E4FCDDE7C0463C18002011
:20328000D04D0110E703000010B501F0ABFB122344694361122C01D0200010BD014806F0F9
:2032A000CFFCF9E75303000010B501F09BFB4369122B03D0FFF7E8FFFFF7B2FF10BDC046AE
:2032C000002912D002004118094803041B185B001B18DB001B18DB001B185B00181813783D
:2032E000013258408A42F0D170470148FCE7C046C59D1C81032370B5046805009C4310D013
:20330000A30F11D02501AD09002D05D080231B029D4204D9002C02DB064806F091FC2800BE
:2033200070BD054806F08CFC2800E36998470500EAE7C046490300005103000070B504009D
:203340000D4886880168013E0ED3330001E0013B0AD39A008D188A58A242F8D1B34208D0B9
:2033600000F062FF286003E0D220800006F068FC70BD00F059FFFBE79018002010B51821A8
:203380000148FEF7D3FA10BD9818002001220368934318888010704710B5002811D0C46840
:2033A000002C14D02368043C4360A3688360E3682268C360530F032B04D180231B0613432A
:2033C000236010BD0E4806F03BFC2268F5E7041F2268530F032B07D180231B061343002065
:2033E000236001F007FBECE7054806F029FC802322681B0613430020236001F0FBFAE0E728
:203400004903000010B5041F2368DB0711D40D4B1B68002B11D01A0008329442F8D3596889
:203420008C4662449442F3D2012322681343236010BD054806F004FCE9E7044806F000FCD4
:20344000F2E7C046481800204F0300004A03000010B5041E1ED0124B18421BD10168114B31
:20346000194217D1CB78F92B14D10F4B1B68002B11D01A0008329442F8D3586884466244AF
:203480009442F3D201230948194321602200818800F0B6FE10BD064806F0D2FB2168F1E731
:2034A000030000100300004048180020401800204A030000F8B54746CE460E0080B50024BC
:2034C0000700002914D0234B9946234B9846A300FD58002D09D0214B1D4206D12968204BA3
:2034E000194202D1CB78F92B06D00134A642EED10CBC90469946F8BD4B461B68002B23D021
:203500001A0008329542F8D35868844662449542F3D2012319434346296099882A00404686
:2035200000F06EFE43469B88642BDED90C2011F0F7FA0C4B01341A6818600260A200BF18BE
:20354000341B47608460D3E7074806F079FB2968DFE7C046481800204018002003000010B6
:20356000030000405C1800204A03000070B505680400002D06D02800FFF744FF2800A188DC
:20358000FFF798FF70BDC046F0B5C646040000B5002842D0254B18423FD10168244B1942BA
:2035A0003BD1CB78F92B38D1224B1B68002B37D01A0008329442F8D3586884466244944272
:2035C000F3D201230B432360032399438B69002B01D02000984703239846174C174DA3884A
:2035E000002B0FD12868002817D00368866847682B6011F085FA31003800FFF75BFFA3882A
:20360000002BEFD0200000F00FFE4246036893439B69002BE3D09847E1E704BC9046F0BD0E
:20362000074806F00DFB2168CBE7C046030000100300004048180020401800205C1800201A
:203640004A030000F0B54E46DE4657464546E0B5A74B81461B7887B09A0700D535E10221D1
:203660000B43A34902220B70A24B1F689D884B46134098464B461A4200D01DE10024012610
:20368000002D0AD0A300F858304201D0B04300680134FFF779FFA542F4D8484601F0B0F914
:2036A000954C2368002B16D0944B1B685E8D00F03BFFB300851B2668F6184346002B00D0A3
:2036C0000AE1002D07D00024A300F0580134FFF75BFFA542F8D18A4B1E688A4B1D78002DC5
:2036E00007D00024A300F0580134FFF74DFFA542F8D8854B9A46002352461360834B98462C
:2037000042461B6801331360814B1E680023002E00D1EAE01F00CB4601930293049304992C
:2037200073688C469B0834009C449A0063460834A2180392049394425AD2B1460BE00122B9
:20374000934320002360FFF7D5FD85006519039BAB424CD92C00012223681342EFD11A0F5D
:20376000062AECD0039AA24200D88FE080262500F60500E02B68002B10DB0122134215D1E8
:203780001A0F062A12D0334208D1DB78F92B02D0604806F055FA280000F016FD2800FFF721
:2037A000A9FD039B80002D18AB42E3D8029A2E1B9446B3109C4462460292019A93425FDD0E
:2037C00080219A000906114305910193FF2120000AF0A4FC059B2360042EB8DD0023636077
:2037E000002F49D0039B7C602700AB42B2D84E463668002E93D1484AD9461368002B14D06A
:20380000029B5C085346196800290ED00B6818018009844206D248E00B681B019B09C018A0
:20382000844243D349680029F6D1029B9900049B9A00019B9B004046C16003614069002889
:2038400011D1404641614846C00711D40222284B1B789343264A137007B03CBC90469946CD
:20386000A246AB46F0BD8842EBD84846C007EDD52A480AF099FEE9E7534627001C6066E7C2
:203880009A0080231B06134305939FE7019B002B04DB80231B062500236058E780231B0641
:2038A000236000234E460193A2E703001B191B1A9B00CB181360B8E719480AF075FE2A00BD
:2038C000390018480AF070FED8E6D220800006F0B7F9074B1B78C2E62A00310012480AF0D5
:2038E00063FE002D00D0EEE6F5E600220021A2E74D20002090180020381800203C180020B6
:20390000B81800204F200020BC1800209818002048180020490300006C180020E8500110AB
:20392000C8500110D0500110DC500110F8B53C4E3368002B08D01B68002B63D00220FFF722
:2039400081FE152006F07CF90021CF20FEF790FD802104004901CE20FEF78AFD0500002038
:203960000BF036FA0027451B002C37D1280011F0D7F82900040008394160876122002948DF
:203980000AF012FE63689A0736D1274A5168013151609168C91891602449DA1C114080227C
:2039A00012060A432249A2600A689B08E26022000832D3180A601F4A13603368002B01D0BA
:2039C000A34204D923603460F8BDA34203D81A001B68002BF9D123601460F5E7164BA4022D
:2039E000C318DB0BDB031C1B002CBFDD200011F097F82D1B0700B9E7D220800006F020F909
:203A00006368C2E70021CD20FEF732FD0B4BC318002B00DC92E70A4B0A4CC1186160ADE776
:203A2000481800200451011098180020FCFFFF7FBC1800206C180020FF7F0000FCDBFBFF70
:203A4000F4DBFBFF0024042010B5002815D00F4B1B68002B17D01A0008329042F8D35968E2
:203A60008C4662449042F3D2041F2268530F032B04D180231B061343236010BD044806F079
:203A8000DFF82268F5E711F03BF8F6E74818002049030000F8B5CE4647460E0080B507294B
:203AA0002BDD002829D0031F00209846FFF7CAFD032303369E43214B07361D68B708002DA6
:203AC0001BD01F4B99464B461D4202D01D4806F0B7F82C68002C02DB1B4806F0B1F84346BE
:203AE0005B1B98101F2B05DD2401A409241AE41B072C08DC6D68002DE5D1002528000CBC89
:203B000090469946F8BD3F186968BF00EF1979608022032112068B43A400134314433C60DA
:203B20002B60C023094980000E40DB056F601E432D1840C50020FFF785FDDFE7BC1800204B
:203B400003000010510300004B030000FCFFFF9F70B5051F2A680400530F032B03D0054888
:203B600006F06EF82A6880231B06134320002B6070BDC046490300000421024A13780B43C9
:203B8000137070474D200020F0B54E46DE46574645468023E0B5C61C85B00390B6089B029C
:203BA000984200DD93E04E4B5B68DB056AD14D4B02931B781A0767D101221343029A1370B3
:203BC00000F010FF002803D04368002B00D182E0454B00279B46454B9946454B9A465B46CA
:203BE0001D6800239846002D04D153E0A846002B50D01D00002F03D14B461B68AB4252D38B
:203C00003C4B1D4202D03C4806F01AF82C68002C02DB3A4806F014F82401A4096B68A41BDB
:203C2000E4D41ED14246002A29D0536000222A60002B09D05B68002B06D02E4A134203D06B
:203C4000D420800005F0FCFF0122280002990B7893430B7005B03CBC90469946A246AB460B
:203C6000F0BD8022B600A1001206AE190A433260012CD7D0424673603300002AD5D15A460E
:203C80001360D3E7174B02931D4805F0D9FF029B1B7891E7002F06D0012F09D0152005F0EE
:203CA000CFFF01379BE70020FFF7CCFC013796E753461B69524600935346D2689B6803992F
:203CC00010480AF071FC0137FFF730FE87E7162005F0B6FF67E70C4805F0B2FF78E7C046CE
:203CE00000ED00E04D200020BC1800206C1800209818002003000010510300004B0300004D
:203D000092030000185101104E030000032310B5C41C9C43201DFFF737FF044B07341C404A
:203D20008023DB051C4310C010BDC046FCFFFFBF10B5002808D0FFF7E9FF8023021F116865
:203D40009B050B43136010BD0020FCE7F8B51F4B06005B680D00DB051FD100F043FE1C4BDD
:203D60001C4F1D60751BAD10041E3D7019D00C20FFF7CCFF8023021F11689B050B431360CB
:203D800063680360A3684360E3688360E060002320003B70A6606360F8BD0F4805F050FFD2
:203DA000DBE71820FFF7B2FF8023021F11689B050B431360094B12221B6842610360002390
:203DC000C3600361040000F015FEE0E700ED00E0B81800204F20002092030000381800203D
:203DE0000C4B10B55B68DB0503D10B4B1B78002B02D010F095FE10BD002808D0FFF786FF6F
:203E00008023021F11689B050B431360F3E70020F1E7C04600ED00E04D200020F8B5040021
:203E20000E00194B1B68002B27D01A0008329442F8D359688C4662449442F3D23000FFF77C
:203E4000CFFF0500002C1DD0002D1BD0271F3A68530F032B03D00D4805F0F2FE3A68120124
:203E600092099200B24200D93200210028000AF05BF92000FFF7E8FD04E0310020000AF055
:203E8000C9FF05002800F8BD481800204903000070B50500002909D0012908DD4C1E2800DF
:203EA00001210435FFF7F4FF013CF8D270BD012202430248818800F0A3F9F7E7901800209D
:203EC000020010B5002802D0044B184200D010BD0348818800F094F9F9E7C0460300001011
:203EE0009018002010B5002802D0034B184200D010BDFFF723FAFBE70300001010B5406881
:203F0000FFF7A6FA10BDC04610B50430FFF72EFB10BDC04610B581880C30FFF7CBFA10BDBB
:203F200010B54068FFF794FA10BDC04610B504000430FFF71BFB20000C30FFF717FB10BD83
:203F4000012208C810B59343198804398908FFF7B1FA10BD032070470320704780888000BA
:203F60000F3080087047C04602207047052070470023034A13605360024A13605360704749
:203F8000901800204018002010B500F0EDFC10BD10B5002801DB00F0DFFC10BD7047C04658
:203FA0000023436083607047002343608360C3600361704710B5054A010083881268806838
:203FC000821A03480AF0F0FA10BDC0463C1800204C51011010B50100426802480AF0E4FA8F
:203FE00010BDC0466851011010B50100028902480AF0DAFA10BDC0467C510110F8B5040059
:20400000C0880D0088420ED3A288914201D3A580F8BD2368521A9C4688009200002160443D
:204020000AF07CF8F3E700282BD03F280ADD80239B00984227DB0130164BFF30984202D937
:20404000154800E040002E00854200DA0600B00010F066FDE3880700002B0CD1F21A9B00DA
:2040600000219200F8180AF059F8206810F048FD2760E680CBE79A0021680AF055F8E388F1
:20408000ECE70420DFE783000321181807F084F9D9E7C046FEFF0000FFFF0000416870B589
:2040A000194B1A4D0A68060029609A4213D0088C8000FFF73DFE2B68154C1A8C00219200E3
:2040C00020600AF02BF823681C602C68114B22689A4208D0FEE7104810310AF065FA0F48E0
:2040E00005F0AEFD70BDB36822699A42F2D100F033FD20002B68002200211C6B403000237E
:20410000A04700F025FCEDE7718E3B923C18002038180020708E3B92905101109F030000C4
:204120007047C0467047C046012370B50A6804009A4313890D00042B14D1002C10D0E01CA4
:204140008000FFF721FD06000B4B22040360AB68848083600021920B0C3009F0DFFF3500E6
:20416000280070BD0122054905480AF01DFA034805F066FDE1E7C04620520110850300009F
:20418000AC5101100E4B026970B504009A420BD12088FFF7F9FC05002288002110C0043AFB
:2041A00009F0BCFF280070BDE2210322054889000AF0FAF9E220800005F042FDE8E7C04680
:2041C0009D3F0010AC510110012310B502689A431369984710BDC046012310B502689A4357
:2041E0001369984710BDC046012310B5026801009A43128801480AF0D7F910BDBC510110C8
:20420000084B70B505000C001600994205D883888B4203D92B68A400E65070BD0131FFF7D1
:20422000EDFEF7E7FEFF0000838802000020002B08D0013B9BB2938012689B00D3180022CA
:2042400018681A607047C046F8B5C58804000F00002D1DD03F2D31DD80239B009D420CDB02
:204260006B1C1E4AFF3393422FD81E1C9BB28B420CD3B6B2B54210D3F8BDA80003214019F2
:2042800007F08AF8061C80B2B842F2D23E1CF0E70E1C042900D20426B6B2B000FFF736FDCE
:2042A000E3880500002B12D1F21A9B0000219200E81809F033FF2560E680DDE76B001E1CA7
:2042C0009BB28B42D5D23E1CD3E7054ED2E79A00216809F029FFE388E6E7C046FEFF00007E
:2042E000FFFF0000C38870B506000C0015008B4207D8084B994200D970BD013189B2FFF7E6
:20430000A3FF3268A3009D50B388A342F4D80134B480F1E7FEFF0000C38870B505008CB2F4
:204320008B4201D2A34201D9AC8070BD2100FFF78BFFF9E7838802000020002B08D0013BD8
:204340009BB2938012689B00D318002218681A607047C046F8B58288040000258A420CD993
:2043600003688E0098194F1C0568BA4207D80021013A92B2A2809200D1502800F8BDC94382
:204380008A18311D920059180FF013FDA2882368EDE7C046F8B5838804000D0016008B42E0
:2043A00019D9591CC28889B28A4210D9691C206889000F1F5A1BC3199200401819000FF045
:2043C000F8FC2368DE51A3880133A380F8BDFFF73BFFA388EAE7FFF785FFF7E770B505004A
:2043E000C3888288016809480AF0DEF8EB88002B0BD00024064E2A68A300995830000AF09D
:20440000D3F8EB880134A342F5D870BDD8510110FC51011010B504000100028903480AF018
:20442000C3F8201DFFF7DAFF10BDC04604520110024B03600023436083607047B052011058
:20444000024B0360002343607047C04680520110034B0360002343608360C36003617047AE
:2044600050520110F8B54746CE46068980B50C004768002E30D0002002E00130B04207D290
:204480008300FB58A342F8D10CBC90469946F8BD236820005B6A9847236880461B6A200021
:2044A00098470024814602E00134B4421CD2A300FD582B6828005B6A98474045F4D12B6803
:2044C00028001B6A98474246010048460FF063FC0028E9D12000D7E70B6808005B6A9847FC
:2044E000236820001B6A984701204042CCE7C0467047C04610B504000A00010003480AF07B
:2045000053F8200005F09CFB10BDC046AC510110014B1B68186970473C180020014B1B6879
:20452000986970473C180020014B1B68188C70473C180020014B1B68D86B70473C18002074
:204540000448054B026810B59A4202D1FFF7A6FD10BDFEE7A055011010420000030000201B
:20456000002B07D09A0705D101221B689343DA78F92A00D070471889063843425841C0B2DB
:20458000F8E7C04670B506000C20FFF7FDFA164B04000360002343608360002E08D0B307C1
:2045A00006D1012332689A431300D278F92A01D0200070BD0D4A9342FAD13589002DF7D042
:2045C000FFF77EFC63899D4203D92900201DFFF73BFE716860682581AA0009F0A5FD200083
:2045E000FFF780FCE4E7C046B05201105052011070B504000D00002801D0830713D00F48BF
:2046000005F01EFB29002000FFF72CFF051E08DB2900201DFFF79EFE200029000C30FFF7A9
:2046200099FE422070BD012302689A431300D278F92AE4D1024A9342E4D0E0E79B0300007A
:204640005052011070B50E00FEF74EF8040030000D00FEF749F802000B002000290007F075
:2046600095FAFDF711FC70BD10B5FEF73DF807F05FFAFDF709FC10BD10B5FEF735F807F09A
:2046800041FAFDF701FC10BD10B5FEF72DF807F023FAFDF7F9FB10BD10B5FEF725F807F0AB
:2046A00001FFFDF7F1FB10BD10B5FEF71DF807F09BFEFDF7E9FB10BD10B5FEF715F807F08B
:2046C000C3FEFDF7E1FB10BD10B5FEF70DF807F0EDF9FDF7D9FB10BDF0B5C64600B50302E0
:2046E0000E0082B01B0E00D01E00FA230004040C1B01E718380001F047F8051E04D0280090
:2047000002B004BC9046F0BDF0233340102B1BD0202B1CD000229046302B02D00D4805F052
:204720008FFA200001F014F80400182009F002FD0F2143460E40019321000123BAB20096BD
:2047400005000CF055F8DAE701239846E9E702239846E6E72303000070B50D0001214942A3
:20476000FDF786FE0400431C04D029002000FFF7B3FF70BD014805F063FAF6E78B03000066
:20478000F0B5C64600B507000E0090461D0000F0FBFF041E03D0200004BC9046F0BD290040
:2047A0003000FFF799FF290006004046FFF794FF0500102009F0BEFC0400AA88BBB2B18839
:2047C0000DF098F8300000210CF056F8280000210CF052F8012120000DF022F8DBE7C04601
:2047E000012170B5494204000420FDF741FE0121050049420520FDF73BFE20210600CA2057
:20480000FDF736FE0100002C0AD0012C11D0022C0AD10300320029000320FFF7B1FF70BDFE
:204820002800FFF759FFFAE7044805F009FA0020F5E73000FFF750FFF1E7C0468D030000FE
:2048400010B52021007CFFF747FF10BD10B51023808800F0E5F910BD036810B5DB699847DF
:20486000431E9841C0B210BD10B50AF0ADFB431E9841C0B210BDC0468088704710B5044B06
:2048800000221B6800211C6B0023A04710BDC0463C180020F0B5CE46474680B585B0060CB8
:2048A0000090019102926946102287B21248039309F03AFC31003800FCF7F8FE0400300083
:2048C000FDF7DEFB8046002C10D00C4B99464B461B68002241461D6BE0680023A8472068DC
:2048E00032003900FCF7D0FE041EF0D105B00CBC90469946F0BDC046501600203C180020CA
:2049000010B5FFF7EFFA10F083F810BD70B50500054E336800221C6B002100232800A04797
:2049200014200AF073F9F4E73C18002010B5040009F006FF03000020002B07D0002C01D0A5
:204940008200A3501B6A0130002BF7D110BDC04610B510F05DF810BD10B50AF057F910BDA3
:2049600010B510F0C5F810BD10B5041E06D0FFF7A7FA2100024A03480AF03AF810BDC046DD
:2049800081EC00100D49001010B5041E06D0FFF797FA2100024A03480AF02AF810BDC04649
:2049A000014900107D48001010B589B280B20AF04FF910BD044B10B51C68FDF74FFDFF238D
:2049C000FF342018984310BD3C18002010B510F077F810BD10B50BF023FD10BD10B50BF0E2
:2049E0002FFD10BD024B1868002800D0406A7047D0180020014B1B6858627047D018002048
:204A0000F0B54E46DE4657464546E0B5494B87B099461B680290002B00D182E009F090FED8
:204A2000002863D00024006A01340028FBD1A500280010F075F80390FFF778FFA0426BD10C
:204A4000002C5FDD039B9A46002355449B46019505E004239C46019BE2449A4552D05346F3
:204A60001F687E6A002EF4D07069FEF78DFD0223029A0436134000934B461B6834689F420B
:204A800024D03868BD680EF073FF4B461B682D1A641975689F4207D0BB68386898460EF0E1
:204AA00067FF4346181A2D18009B002B12D1A54204D901CCFEF768FDA542FAD8B668002EF7
:204AC000C7D04B461B6834689F42DAD1009B7568002BECD001235B4498462B1B59462200FC
:204AE00015489B1009F060FDC346E0E7002010F017F80390FFF71AFF002803D0CB20800051
:204B000005F09EF803980FF0FBFF07B03CBC90469946A246AB46F0BDCB20800005F090F8A4
:204B20008EE701200FF0FCFF059005980FF0E8FFEBE7C046D0180020E052011010B501F0F4
:204B40002BF80400302009F0F5FA0123002221000BF0E6FC10BDC04670B5FFF7EFFF01F0E5
:204B60002FF81F4B1B681C8D002C29D11D4809F039FE1D4C1D4D661CFF3602E00434B44223
:204B80000AD020680028F9D003681B68AB42F5D004349847B442F4D101F0F2F801210D2026
:204BA0004942FDF765FCFF23184000F0D1FD002803D0036800211B68984700F0F9FF70BDDF
:204BC00021000B48FEF766FF210005000200094809F0EAFC002DC9D1142005F031F8C5E7EA
:204BE0003C180020BC160020D81800204504001000200020EC52011010B505480DF060FCEC
:204C000004480CF02FFC044B044A1A6010BDC04650160020BC1600202C170020DC5C011013
:204C2000F0B557464E464546DE46E0B58DB004000D0016001F00FCF739FD00280BD0320079
:204C400029002000FCF74AFD0DB03CBC90469946A246AB46F0BDBFB20F2C01D1C02F10D193
:204C6000282009F067FA82461E4BA1B2AAB200970AF0F8F81C4B514618000CF0E1FA00281C
:204C800028D1002DDBD1012120004942FCF70EFD071ED4D0A3B29B46124B9946124B984601
:204CA00010239A4653463A895946009302A84B460AF0D8F802A940460CF06CFA02A80AF017
:204CC000EBF80122386821005242FCF7DDFC071EE8D1B4E750460AF0DFF8504609F032FA12
:204CE000CFE7C04695480010BC16002000B585B08AB2012381B268460FF0AAFE05B000BDD5
:204D0000012110B502484942FCF780FD10BDC046FC52011010B50CF067FB10BD036810B515
:204D20001B6A98470100024809F03EFC10BDC04604530110036810B51B6A0C009847220094
:204D40000100024809F030FC10BDC0460C5301100148C000C00870470020042000487047D5
:204D600016FCFFFF0048704716FCFFFF0048704716FCFFFF002070472023C05C1F3B5840DD
:204D80007047C0460048704716FCFFFF00487047E453011000487047F8530110F0B5574663
:204DA0004E464546DE46E0B51C00294B804691B018688A4616000AF0E7FD00283FD01A9F50
:204DC0007B1C00D004340FF073FE002C35D05346402B3BD0DBB29B4623E0A146534625006E
:204DE0002B4300936B46581C7B1C0BD004221AA909F09AF901235B424D461A936B46043CB4
:204E0000043D581D31002A0009F08EF94346402269469868641B76190EF04AFD002C0CD00C
:204E20001A9F3C22002101A809F078F93F2CD4D93F225B463F259146D2E70FF051FE11B00A
:204E40003CBC90469946A246AB46F0BD0023C1E7901A002000B506498378020008680549CB
:204E600083B000910C334021FFF798FF03B000BD901600202000800030B5047D0D0083B0C5
:204E8000002C0CD0591E8B4140215B42194001235B420093803113002A00FFF77FFF00209A
:204EA00003B030BD70B590B0040040226946C0680EF050FC002830DD6B461D78E3691A88FD
:204EC000002A0FD069B200292BDB3F2682212E4090194900884207DDBA200BF065F8E369EB
:204EE0001A8801E03F262E40181D6B468018591C320009F019F9E269002013889E193F230D
:204F000016809D4309D0402D09D0802D0FD0022393700022E36918881A8010B070BD9070B3
:204F2000F7E7B8200BF040F8E3691A88CDE701239370EEE7802330B55B000500140083B0BB
:204F40009A4210DCC069083009F0EEF80121EA69494200912800231D04324131FFF71EFF95
:204F6000002003B030BDC3695B68009313000A004021FFF713FFF3E7F0B587B00500FFF7B8
:204F800091FF061E04D0EF69BB78002B03D00026300007B0F0BD3A897C68BA80FB80FFF7F4
:204FA00019FD0122A8612A75212C07D8002C38D0212C36D87F4BA4001B599F467E4B9C42E7
:204FC00000D1D8E00BD97D4B9C422AD17C4B28001A687C4B1968FFF7ADFF0600D8E77A4BDE
:204FE0009C4200D1C1E0794B9C421AD1784BF9681B681960774B1A70EB6940211A1D012358
:205000005B42009328000533FFF7C8FE0026BFE7714B1B68002B00D1C9E038000C30984741
:20502000EAE70123FB80E7E7102E03D09D2040000AF0BAFF3C69402C00D9AFE03900F8685F
:205040000831621E002C05D00023C658CE500433013AFAD20121EA694942A400009128009C
:20506000231D04324131FFF799FE002690E7F8235A495B014A1EFF3A9A4200D28CE0032224
:2050800057492800FFF756FF060081E70223BB600023FB603B610533FF337B61514B4021F2
:2050A000BB61EB6928001A1D01235B4200931933FFF774FE00266BE74B4904C9E1E73B7BC2
:2050C000002B66D0494B4A4A1D604A4B1A6093E739698B001033B34204D09A2040000AF014
:2050E00063FF3969FB684A1EFF1A1037002983D019000433D8590860013AF9D27CE7EB695F
:2051000040211A1D01235B42009328000533FFF745FEF82238495201CB68013BFF3B93429E
:205120000CD24B68591EFF39914207D2DA0705D544220F20A9688A5C104098473020FF308E
:205140000AF032FF58E7BFF34F8F2C4B2C4ADA60BFF34F8FC046FDE7BFF34F8F274B284A40
:20516000DA60BFF34F8FC046FDE7264B264A1A600EF0E0FB40E7FFF7D7F9154B04901B68E3
:205180000822280004A903930593FFF7D3FE0600FEE6184A13602FE73D2272E79E20400090
:2051A0000AF002FF3900F8680831621E4CE70223FB8021E75C530110E066FC53101590704D
:2051C000981600209416002093BD20113159A527381800204B200020B81600201C530110F7
:2051E0001853011056FF8BE4AC1B002090160020554E0010B4160020F01F000000ED00E049
:205200000400FA05040004207FACEBF0074A002308320260C1612022002103718360C3604E
:2052200003618382815483617047C04628540110F8B505000E00002814D0002912D01E4FBE
:205240003C68002C03D124E0E469002C21D023689D42F9D163689E42F6D1184809F0A4F9A0
:205260002000F8BD164809F09FF9012119204942FDF7FEF8FF24204000F06AFA012105009C
:2052800049421820FDF7F4F8204000F061FA0600D5E70C4809F088F9202008F04BFF0400AA
:2052A000056046603200290008300DF0C5FA3B683C60E361D4E7C046C8180020605401108B
:2052C000445401107854011010B5FFF7B1FF083010BDC046F0B5C64600B5060082B00D0027
:2052E0000020110017009846FCF720FB0400FEF7E7FD4346220030006D00A9B2083200932D
:2053000008303B000DF05CFA05002000FEF7EAFD684245416D422C40200002B004BC904613
:20532000F0BDC04610B51C0082B04900536889B20832009408300DF02DFA02B010BDC046B9
:2053400000207047002070470020704700207047004870470BFCFFFF004870470BFCFFFFE9
:20536000004870470BFCFFFF70B5094D2C68002C01D0200070BD102008F0DCFE04220400A4
:20538000044B210008C052420BF022FB2C60F0E7681800209C54011010B5FFF7E5FF10BDB9
:2053A00010B5FFF7E1FF002010BDC04610B5FFF7DBFF10BD10B5FFF7D7FF10BD012110B5B8
:2053C000494204001320FDF753F8FF23184000F0BFF9001B43425841C0B210BDF0B55746F0
:2053E0004E46DE4645465300E0B59B181700F0229146994485B082464846884608F09EFE05
:205400004A460021060008F089FE002F30DDBC46802380247825002047460EE03A5C2023C0
:205420000135224203D0725D80390A43725564101BD10130803460451ADA7219904641469D
:20544000725D1A430A705910E8D0C9B20391395C9B10214203D003990A4341460A70002BEB
:2054600023D1013540336410E3D0E4B26045E4DB00220021504600F0DDFB036804001B68DB
:205480000D49984700222368009231004A46DD6820000023A847300008F054FE05B03CBC39
:2054A00090469946A246AB46F0BD5A10D3B2002ABDD180230135BAE7009F240070B50400A4
:2054C0000D001600FFF77AFF002800D170BD320029002000FFF782FFF8E7C046F0B5D6467C
:2054E0004F464646C0B51E0003680C001B6800210700202598472268012112682000904795
:205500002268002120001268013D9047002DF2D1089B002B22D0B1464B449A464B461B78F7
:20552000082698468025414629404B1E99413B6838001B689847236801211B68200098471B
:205540002368002120001B68013E98476D08002EE9D101239C46E144CA45DFD13B680121D2
:2055600038001B6898472025236801211B68200098472368002120001B68013D9847002D84
:20558000F2D11CBC90469946A246F0BDF0B5CE46474680B50A0083B000211E0000F04AFBFA
:2055A0000025040003680095184FDB683900984604220023C04723680095DB68310098463F
:2055C0000A9A00232000C047236800953900DD68042200232000A8470A9BDF0810D00C4B24
:2055E0000025994600239846424623680092DE6804220023494620002035B047BD42F3D3B2
:2056000003B00CBC90469946F0BDC046881A002074150020F0B504000D0017001E0083B01E
:20562000002814D0002912D0002B10D0089B002B0DD0182B0DD9FFF7C1FE002809D0089B1B
:205640003A000093290033002000FFF79FFF03B0F0BD089B3A000093290033002000FFF72B
:205660003DFFF4E710B582B000280BD0002B09D05C68002C06D00833042A05D019002200D6
:20568000FFF71CFF02B010BD0094FFF7C3FFF9E7F0B5C646040400B5240C1D2C0DDC1E4D13
:2056A0002B5D002B11D01D4A12681D498C4663449B00985804BC9046F0BDE320800004F051
:2056C000BFFA154D2B5D002BEDD1144B154F98463978186801318900FEF7A0FB4346186020
:2056E000182008F027FD0E4B0600234102202100DB07DB1703406431E2B2013330000DF0AF
:20570000BBFC434639781A684B1CDBB289003B708E502B55C9E7C04670180020B418002046
:20572000FFFFFF3F4E200020012170B549420500FCF79EFE0400431C03D02000FFF7A8FF46
:2057400070BD2900014808F02FFFF6E7B854011010B5002806DBFF2804D00004000CFFF7BB
:2057600097FF10BD0020FCE7012110B54942FCF77FFE002806DBFF2804D00004000CFFF7D7
:2057800087FF10BD0020FCE7084B10B5591C0400FF3102E004338B4206D018680028F9D0C5
:2057A0008288A242F6D110BD0020FCE7D818002010B5FFF7D9FF10BD10B501000020FCF71B
:2057C000B5F810BD014B98687047C0465016002010B503685B69984710BDC04610B50368EA
:2057E000DB68984710BDC0467047C0460048704716FCFFFF044B10B5036000230400C38007
:2058000008F0F6FD200010BDB85C0110064B10B5036000230400C38008F0EAFD200008F0B1
:2058200091FC200010BDC046B85C0110F0B5CE4647462C2380B5C35C040085B0002B04D1A1
:2058400005B00CBC90469946F0BD80680021036808261B689847A0680121036800251B6828
:2058600098472069012103686D009B689847002801D001231D43E06800210368013E1B68D1
:205880009847E068012103681B689847002EE8D1A3695D4063699D42D2D0270001231C3777
:2058A000994612E02B420CD10F4B98460123414668460FF0CDF801230022414668460FF0FE
:2058C000C7F801360237082E0CD03A88002AF8D04B46B34061691942E4D12B42F1D0034BF9
:2058E0009846E3E76561ABE70208000003080000036810B55B689847431E9841C0B210BD48
:2059000010B503681B68984710BDC04670B50D0016000400036803211B6D98473200290085
:2059200010232089FFF77CF970BDC04670B505000C00160003290EDD0B1F012B0AD803212E
:2059400003681B6D280098471023320021002889FFF766F970BD0129FCDD036802211B6D7B
:20596000F0E7C046F0B504394F464646D6464B424B419146C0B5984604000AF061FD4B46FB
:2059800006000F00DD1706E00AF05AFD801BB941A9421ED81BD0236820005B689847404594
:2059A000F2D10AF04DFD824606E00AF049FD801BB941A9420DD812D0236820005B6898475E
:2059C0004045F2D00AF03CFD5346C01A02E08145E1D200201CBC90469946A246F0BD814577
:2059E000EAD2F6E70B0010B50121002B03D0013B59425941490003681B6C984710BDC046C0
:205A0000F8B5294D2C68002C01D02000F8BD302008F090FB0027254B47600360040008F08D
:205A20006DFC0121224B494223604720FCF720FDFF263040FFF78CFE0121A06049424820BF
:205A4000FCF716FD3040FFF783FE0121E06049424920FCF70DFD3040FFF77AFEFA231B01EF
:205A6000A3808023E2889B01134306002061E38001222C23200000216761A7611C30E25415
:205A80000F3208F04BFB336801219B6830009847A068012103681B689847E06801210368EC
:205AA0001B6898472C60B0E760180020B85C0110D05401100121F8B5494206004820FCF7B4
:205AC000D7FCFF231840FFF743FE0025002826D0FFF796FF04008068002103681B6898479A
:205AE000A068012103681B689847002E17DD00272069012103686D009B689847002801D008
:205B000001231D43E0680021036801371B689847E068012103681B689847BE42E8D128007B
:205B2000F8BDC046012110B548204942FCF7A0FCFF231840FFF70CFE002814D0FFF760FF66
:205B400004000069002103689B689847A068002103689B689847E068002103689B6898473E
:205B60002C230022E25410BD10B503685B6B984710BDC046FA2210B50368D2001C69014B1A
:205B8000A04710BDDC05000010B50368DB6A984710BDC0467047C04610B5182008F0CAFAD3
:205BA00004000CF077FF200010BDC0467047C04610B5032004F0ECFEFBF7D8FE10BDC0465E
:205BC0007047C046F0B5C646164B05001C680E001700984600B5002C03D10FE0A46B002C8B
:205BE0000CD023689D42F9D163689E42F6D1A3689F42F3D1200004BC9046F0BD3C2008F0BC
:205C000099FA3B000400056046608760320029000C300DF0BFFA43461B68A36343461C605C
:205C2000E8E7C046C418002010B55A2004F008F8002010BD10B5FFF7C5FF0C3010BDC046E5
:205C400010B50C300DF028FA10BDC04670B506000C00150082B0002818D0002C08D023009C
:205C6000083362681C00002D05D10023002105E0002D09D000222B006968083330000091B7
:205C80000C3021000DF062FA02B070BD014803F0D7FFE2E7DD03000010B50C300DF04CFA70
:205CA00010BDC04610B508220C300DF0F3F910BDFA2010B5400008F0A9FF02480AF052F9E2
:205CC00010BDC046081700207047C046F8B504000EF0F6FE224D40002900400808F04EFAF2
:205CE000200020490EF059F9002830D0C379C61D002B32D0340005E00D2B05D06378013421
:205D0000002B01D00A2BF7D1A41B20000A30FEF70FF807002200310008F006FA124907229F
:205D2000381908F001FA380010490EF036F9002809D0002303700E4B03301F6058600D4AB0
:205D40009D605361F8BD0A4B1F605F60F7E7084B094A1A60094A5A60F1E700240A20D6E75C
:205D6000A01A0020EC540110F4540110FC540110941A002008170020005501101055011055
:205D800010B50A4B0A4C0B48A361FFF79FFFFFF79BFF2000084909F093FD2000074909F0B5
:205DA0008FFD0749074808F011FE10BD34550110081700201C530110E4160020A01600209B
:205DC00075040020B15C001010B5034809F0DCFD431E9841C0B210BD0817002070B500232B
:205DE0000A0004000D0001000548FFF745F8054B1B68002B02D029002000984770BDC046DC
:205E0000E41600205418002010B508210548FFF7E5FF054802C8FFF7E1FF02210348FFF776
:205E2000DDFF10BD24550110AC1B00203055011010B52421074809F023FC07490748FFF7AC
:205E4000E5F90022064B9A60DA601A711A61054A1A6010BD0817002030170020E416002061
:205E6000A0160020145401107047C04670B51C4D2C68002C01D0200070BD01210E204942CF
:205E8000FCF7F6FAFF263040FFF762FC002824D0182008F04FF90121040049420E20FCF7D0
:205EA000E7FA3040FFF754FC1122010020000AF0AFFB322120000AF089F9D92120008900C1
:205EC0000AF07AF9802120000AF0B6F9E021200089000AF091F92C60CDE72C68CBE7C04631
:205EE0004C18002030B589B005000C00FFF7BEFF002820D0838802AA9380C388D380038930
:205F000013814389538183899381C389D381038A13820A4B029343691000019307930AF09D
:205F20002DF902AB9888220010232900FEF778FE02A80AF043FB09B030BDC046186001106E
:205F400010B588B0FFF792FF002821D0838802AA9380C3880324D380038913814389538155
:205F600083899381C389D381038A1382094B029343691000019307930AF0CAF8C3171C407A
:205F8000241802A8A4100AF019FB200008B010BD7F24FAE71860011030B589B005000C0078
:205FA000FFF764FF00281DD0838802AA9380C388A400D3800389A1B2138143895381838948
:205FC0009381C389D381038A1382094B0293436901930793012D07D002A80AF00DF902A8CF
:205FE0000AF0ECFA09B030BD10000AF025F9F6E71860011010B5FEF7A3FA002010BDC04643
:2060000041607047074A106843034340580C434058015840044B10609C460004000C604469
:206020007047C0467C1500200180FFFF80230A0010B59B0099422DDB194BCA1880235B003F
:206040009A4216DD80239B009A1A1300154C5343A44615485843001460445843134B0014CE
:206060009C468023604450439B00001299420FD210BD10000B4950438C460B4B43431B145A
:2060800063445843094B00149C466044504300124042EDE780235B009942D6DDD2E7C0468A
:2060A00000FEFFFFC6ADFFFF3B090000FEC80000024B88019C4660447047C0460180FFFFD1
:2060C00080239B00994203D2054BC901C8187047034B04489C46401AC0016044F7E7C04602
:2060E0000180FFFFFF030000036A1A7866235343044A944663448B4201DC0348704703483B
:20610000FCE7C04604FCFFFFFF7F00000180FFFF70B53F24250083691D4095421AD0104E86
:20612000144033685D035D406B0C5D406B016B4080252D0233602B401C438461002B0DD02A
:206140008020084B8000814280419C4606490840604470BD802212021340F1D10020F8E734
:2061600078150020FF7F00000200FFFF036A18780D4B1B18103B1B781A401F2350111A4037
:206180001E3B9340094A800082581A4209D08020074B8000814280419C46064908406044DE
:2061A00070470020FCE7C0468855011080550110FF7F00000200FFFF0020704770B5E026CB
:2061C00005000400094BE0350360094B835128330930AB60FF300CF0CDF9064B2800A351C5
:2061E0000023EB8008F004F9200070BD5055011068640110B85C011070B5E02605000400E3
:206200000B4BE03503600B4B835128330930AB60FF300CF0AFF9084B2800A3510023EB8017
:2062200008F0E6F8200007F08DFF200070BDC0465055011068640110B85C0110F8B5D82332
:20624000C358DE469B4601235B4257469A4603334546984653444E4699465B460400E0B5FD
:206260002B48002B0BD147E0A7681A68D21B002A0ADD904200DD10009B68002B3CD01A7962
:20628000002AF1D0224AF4E720000126002110307642C269002A35D0721C07D0B200921950
:2062A000D200A21812690568AA4200D20E00013128300529EDD1B2009219D2001032A618F9
:2062C000F269002A01D0414611714A46F3611A71DB6837601F00083758680C21376205F03D
:2062E00083F843001B189B00FB1873625346F3605B460748002BC2D13CBC90469946A246FB
:20630000AB46F8BD8A005118C90010316618D7E7FFFFFF00030010B50120002A02DD180097
:2063200000F002F810BDC046F0B5DE46454657464E46E0B58BB01500089006910392FFF77C
:206340007DFF0400A84200DA39E1D823089E0021F4580698631E9C41039B5B001A00099326
:2063600007F0DCFEFA21F5688900280205F014F80590280005F02EFB0B0002009B49002034
:2063800005F091FA05F086FB3300D833049010360793F369002B00D1D1E0336A039A0C3BCB
:2063A000B5683362002A00DC1AE10023069FB34699469A46002498463E00029301930093AE
:2063C0008CE05B461B6A59461A000C320A62496A8A4200D3E6E08648D98980461A7B814262
:2063E00005D889B28846142901D2142188468048D98A8246814205D889B28A46142901D2F6
:2064000014218A468020598AC0000F1C09B2814201DB78490F1C3FB2F9438024C9170F40C3
:20642000998AE400081C09B2A14201DB7149081C00B2C1431B8A704CC9170840A34203D8DA
:206440009CB2002C00D10134531EDBB2042B4BD86A4A9B009B580193059BC01B5C43240A4E
:206460002100000404F098FF009B0290002B47D03B044046994607F053FC049907F01BFC68
:2064800007F0A2FC0700D04500D184E0504607F047FC049907F00FFC07F096FC2100C01B22
:2064A00004F07AFFBA468046C244A901AA0E019B5846890D98474B461B1458433388001468
:2064C0001818029B039A9C46009B30800133ED19E144013C009302369A421ED0002C00D1F7
:2064E0006FE75746C244E0E713000B3B042B56D9434B103A0193022AAED9424B0193ABE753
:206500005B46DB6899460133B2D05B461F695C685B69BA469846C244C7E75E46C346336A75
:20652000726A9A423FD9B560002C00D101344B46F3605B4673615346746001243361079B23
:2065400028369E4200D024E70399089A8C469368009363449360002915DD80200699099BEC
:20656000294D2A4ECA18800003E00E800231914209D00027CB5F8342F7DAAB42F6DA0D804A
:2065800002319142F5D120000BB03CBC90469946A246AB46F0BD00238246984685E71C4B85
:2065A000019359E75E460223F269012413710023F361079B28369E4200D0EAE6C4E7069EF4
:2065C000089D020031002800FFF7A4FEB446039B61001A1B28006144FFF79CFE0124D2E7BA
:2065E0000022002491469346924699E700009041204E0000FF03000060EA00006C550110F0
:206600006D610010B961001001FEFFFFFF010000E9600010F0B54B6807000E0083B0002B51
:2066200032D080210122890001A80BF08BFF8022019D30002C1D21005200FFF775FE8123A4
:206640009B009C4665448022920094462388634423800234A542F6D100280FD07068002826
:2066600002D003681B689847380001A90BF07AFF01A80BF07FFF380003B0F0BDDC23F05428
:2066800038000BF059FFF3E70BF056FFF3E7C046012170B5494205001A20FBF7E9FEFF2359
:2066A0001840FFF755F8041E09D001211A204942FBF7DEFE2368290020001B68984770BD2C
:2066C0007047C046F0B501270025174B7F4283B0040039000360456006004120FBF7C8FE51
:2066E000FF231840FFF734F81322FA23E036010000929B01220030000CF050FA3800FFF7A1
:20670000DFFFDC23A5603000E5540CF065FBE0602000C8220021103007F000FDD823200018
:20672000E55003B0F0BDC0465055011070B5074D2C68002C01D0200070BD8620400007F0D4
:20674000F9FC0400FFF7BEFF2C60F4E78C1A0020F8B50C000700FFF7E9FF06002000FDF7A8
:20676000AFFB102007F0E6FC0023FA2105000371C460F0688900784304F00EFEB3689C46F2
:20678000604428600EF094F9D823F458AC60F550002C0BD111E0A368E068AB60FDF7A2FBC2
:2067A000200007F0CFFCAC68002C06D02379022BF1D02500A468002CF8D10EF091F9DC23AA
:2067C000F25C002A07D101227068F254002802D003681B689847F8BD70B5FFF7A7FF0500E6
:2067E0000EF066F90023D822AC58AB50343AEB626B65EB67AB502832AB50002C09D02500C9
:20680000A468E868FDF76EFB280007F09BFC002CF5D10EF065F970BD70B5150006000C0042
:20682000FFF784FF002203004260C5600120002C04DD220031001800FFF776FD70BDC046BE
:2068400010B50400FFF772FF2000FFF739FF10BD7047C0467047C046024A43001068C01894
:206860007047C0463C1800207047C0467047C0467047C0467047C04610B542680100938967
:206880000248528907F090FE10BDC046685A011010B5436800205C898C4206DD002A04DB79
:2068A0009B8901209A4201DAC0B210BD0020C0B2FBE7C046F8B5436814001D005A7A0700BF
:2068C0000E001035012A0ED0042A1ED1998989001F314911890071436D18002C22D10F20DA
:2068E0002B781840F8BD99890731C91071436D18002C01D0E310ED18072201231440A34003
:2069000028781840431E9841ECE70D4803F098F97B68AD1B5B7A002C0BD0012BEAD000200C
